{
  "contractName": "TrainerLog",
  "abi": [
    {
      "anonymous": false,
      "inputs": [
        {
          "indexed": false,
          "internalType": "uint256",
          "name": "round",
          "type": "uint256"
        },
        {
          "indexed": false,
          "internalType": "string",
          "name": "accuracy",
          "type": "string"
        },
        {
          "indexed": false,
          "internalType": "string",
          "name": "loss",
          "type": "string"
        },
        {
          "indexed": false,
          "internalType": "uint256",
          "name": "timestamp",
          "type": "uint256"
        }
      ],
      "name": "RoundLogged",
      "type": "event"
    },
    {
      "inputs": [
        {
          "internalType": "uint256",
          "name": "",
          "type": "uint256"
        }
      ],
      "name": "rounds",
      "outputs": [
        {
          "internalType": "uint256",
          "name": "round",
          "type": "uint256"
        },
        {
          "internalType": "string",
          "name": "accuracy",
          "type": "string"
        },
        {
          "internalType": "string",
          "name": "loss",
          "type": "string"
        },
        {
          "internalType": "uint256",
          "name": "timestamp",
          "type": "uint256"
        }
      ],
      "stateMutability": "view",
      "type": "function",
      "constant": true
    },
    {
      "inputs": [
        {
          "internalType": "uint256",
          "name": "_round",
          "type": "uint256"
        },
        {
          "internalType": "string",
          "name": "_accuracy",
          "type": "string"
        },
        {
          "internalType": "string",
          "name": "_loss",
          "type": "string"
        },
        {
          "internalType": "uint256",
          "name": "_timestamp",
          "type": "uint256"
        }
      ],
      "name": "logTrainingRound",
      "outputs": [],
      "stateMutability": "nonpayable",
      "type": "function"
    },
    {
      "inputs": [],
      "name": "getRoundCount",
      "outputs": [
        {
          "internalType": "uint256",
          "name": "",
          "type": "uint256"
        }
      ],
      "stateMutability": "view",
      "type": "function",
      "constant": true
    },
    {
      "inputs": [
        {
          "internalType": "uint256",
          "name": "index",
          "type": "uint256"
        }
      ],
      "name": "getRound",
      "outputs": [
        {
          "internalType": "uint256",
          "name": "",
          "type": "uint256"
        },
        {
          "internalType": "string",
          "name": "",
          "type": "string"
        },
        {
          "internalType": "string",
          "name": "",
          "type": "string"
        },
        {
          "internalType": "uint256",
          "name": "",
          "type": "uint256"
        }
      ],
      "stateMutability": "view",
      "type": "function",
      "constant": true
    }
  ],
  "bytecode": "0x608060405234801561000f575f80fd5b50610ba68061001d5f395ff3fe608060405234801561000f575f80fd5b506004361061004a575f3560e01c80636de7da781461004e57806375c1fadb1461006c5780638c65c81f146100885780638f1327c0146100bb575b5f80fd5b6100566100ee565b60405161006391906104f0565b60405180910390f35b61008660048036038101906100819190610680565b6100f9565b005b6100a2600480360381019061009d919061071c565b6101c4565b6040516100b294939291906107c1565b60405180910390f35b6100d560048036038101906100d0919061071c565b61030a565b6040516100e594939291906107c1565b60405180910390f35b5f8080549050905090565b5f604051806080016040528086815260200185815260200184815260200183815250908060018154018082558091505060019003905f5260205f2090600402015f909190919091505f820151815f0155602082015181600101908161015e9190610a0c565b5060408201518160020190816101749190610a0c565b506060820151816003015550507ff7b1550df1ec8c50b0908e4dbecead1f60f827ec395a331e744ec718103ccd98848484846040516101b694939291906107c1565b60405180910390a150505050565b5f81815481106101d2575f80fd5b905f5260205f2090600402015f91509050805f0154908060010180546101f79061083f565b80601f01602080910402602001604051908101604052809291908181526020018280546102239061083f565b801561026e5780601f106102455761010080835404028352916020019161026e565b820191905f5260205f20905b81548152906001019060200180831161025157829003601f168201915b5050505050908060020180546102839061083f565b80601f01602080910402602001604051908101604052809291908181526020018280546102af9061083f565b80156102fa5780601f106102d1576101008083540402835291602001916102fa565b820191905f5260205f20905b8154815290600101906020018083116102dd57829003601f168201915b5050505050908060030154905084565b5f6060805f80805490508510610355576040517f08c379a000000000000000000000000000000000000000000000000000000000815260040161034c90610b25565b60405180910390fd5b5f80868154811061036957610368610b43565b5b905f5260205f2090600402016040518060800160405290815f82015481526020016001820180546103999061083f565b80601f01602080910402602001604051908101604052809291908181526020018280546103c59061083f565b80156104105780601f106103e757610100808354040283529160200191610410565b820191905f5260205f20905b8154815290600101906020018083116103f357829003601f168201915b505050505081526020016002820180546104299061083f565b80601f01602080910402602001604051908101604052809291908181526020018280546104559061083f565b80156104a05780601f10610477576101008083540402835291602001916104a0565b820191905f5260205f20905b81548152906001019060200180831161048357829003601f168201915b505050505081526020016003820154815250509050805f01518160200151826040015183606001519450945094509450509193509193565b5f819050919050565b6104ea816104d8565b82525050565b5f6020820190506105035f8301846104e1565b92915050565b5f604051905090565b5f80fd5b5f80fd5b610523816104d8565b811461052d575f80fd5b50565b5f8135905061053e8161051a565b92915050565b5f80fd5b5f80fd5b5f601f19601f8301169050919050565b7f4e487b71000000000000000000000000000000000000000000000000000000005f52604160045260245ffd5b6105928261054c565b810181811067ffffffffffffffff821117156105b1576105b061055c565b5b80604052505050565b5f6105c3610509565b90506105cf8282610589565b919050565b5f67ffffffffffffffff8211156105ee576105ed61055c565b5b6105f78261054c565b9050602081019050919050565b828183375f83830152505050565b5f61062461061f846105d4565b6105ba565b9050828152602081018484840111156106405761063f610548565b5b61064b848285610604565b509392505050565b5f82601f83011261066757610666610544565b5b8135610677848260208601610612565b91505092915050565b5f805f806080858703121561069857610697610512565b5b5f6106a587828801610530565b945050602085013567ffffffffffffffff8111156106c6576106c5610516565b5b6106d287828801610653565b935050604085013567ffffffffffffffff8111156106f3576106f2610516565b5b6106ff87828801610653565b925050606061071087828801610530565b91505092959194509250565b5f6020828403121561073157610730610512565b5b5f61073e84828501610530565b91505092915050565b5f81519050919050565b5f82825260208201905092915050565b5f5b8381101561077e578082015181840152602081019050610763565b5f8484015250505050565b5f61079382610747565b61079d8185610751565b93506107ad818560208601610761565b6107b68161054c565b840191505092915050565b5f6080820190506107d45f8301876104e1565b81810360208301526107e68186610789565b905081810360408301526107fa8185610789565b905061080960608301846104e1565b95945050505050565b7f4e487b71000000000000000000000000000000000000000000000000000000005f52602260045260245ffd5b5f600282049050600182168061085657607f821691505b60208210810361086957610868610812565b5b50919050565b5f819050815f5260205f209050919050565b5f6020601f8301049050919050565b5f82821b905092915050565b5f600883026108cb7fffffffffffffffffffffffffffffffffffffffffffffffffffffffffffffffff82610890565b6108d58683610890565b95508019841693508086168417925050509392505050565b5f819050919050565b5f61091061090b610906846104d8565b6108ed565b6104d8565b9050919050565b5f819050919050565b610929836108f6565b61093d61093582610917565b84845461089c565b825550505050565b5f90565b610951610945565b61095c818484610920565b505050565b5b8181101561097f576109745f82610949565b600181019050610962565b5050565b601f8211156109c4576109958161086f565b61099e84610881565b810160208510156109ad578190505b6109c16109b985610881565b830182610961565b50505b505050565b5f82821c905092915050565b5f6109e45f19846008026109c9565b1980831691505092915050565b5f6109fc83836109d5565b9150826002028217905092915050565b610a1582610747565b67ffffffffffffffff811115610a2e57610a2d61055c565b5b610a38825461083f565b610a43828285610983565b5f60209050601f831160018114610a74575f8415610a62578287015190505b610a6c85826109f1565b865550610ad3565b601f198416610a828661086f565b5f5b82811015610aa957848901518255600182019150602085019450602081019050610a84565b86831015610ac65784890151610ac2601f8916826109d5565b8355505b6001600288020188555050505b505050505050565b7f496e646578206f7574206f662072616e676500000000000000000000000000005f82015250565b5f610b0f601283610751565b9150610b1a82610adb565b602082019050919050565b5f6020820190508181035f830152610b3c81610b03565b9050919050565b7f4e487b71000000000000000000000000000000000000000000000000000000005f52603260045260245ffdfea26469706673582212204eb81cff361c690e76bb2dba90629aa2da91c7526c6555d5691693142f9ec89264736f6c63430008150033",
  "immutableReferences": {},
  "source": "// contracts/TrainerLog.sol\r\n// SPDX-License-Identifier: MIT\r\npragma solidity ^0.8.0;\r\n\r\ncontract TrainerLog {\r\n    event RoundLogged(uint256 round, string accuracy, string loss, uint256 timestamp);\r\n\r\n    struct TrainingRound {\r\n        uint256 round;\r\n        string accuracy;\r\n        string loss;\r\n        uint256 timestamp;\r\n    }\r\n\r\n    TrainingRound[] public rounds;\r\n\r\n    function logTrainingRound(\r\n        uint256 _round,\r\n        string memory _accuracy,\r\n        string memory _loss,\r\n        uint256 _timestamp\r\n    ) public {\r\n        rounds.push(TrainingRound(_round, _accuracy, _loss, _timestamp));\r\n        emit RoundLogged(_round, _accuracy, _loss, _timestamp);\r\n    }\r\n\r\n    function getRoundCount() public view returns (uint256) {\r\n        return rounds.length;\r\n    }\r\n\r\n    function getRound(uint256 index) public view returns (uint256, string memory, string memory, uint256) {\r\n        require(index < rounds.length, \"Index out of range\");\r\n        TrainingRound memory r = rounds[index];\r\n        return (r.round, r.accuracy, r.loss, r.timestamp);\r\n    }\r\n}\r\n",
  "sourcePath": "/mnt/c/Users/sumty/Desktop/federated-healthcare/blockchain/contracts/TrainerLog.sol",
  "compiler": {
    "name": "solc",
    "version": "0.8.21+commit.d9974bed.Emscripten.clang"
  },
  "schemaVersion": "3.4.16",
  "updatedAt": "2025-07-12T18:32:49.913Z",
  "networkType": "ethereum",
  "devdoc": {
    "kind": "dev",
    "methods": {},
    "version": 1
  },
  "userdoc": {
    "kind": "user",
    "methods": {},
    "version": 1
  }
}